{
  "_format": "hh-sol-artifact-1",
  "contractName": "AdlinkAdapter",
  "sourceName": "contracts/Adapter.sol",
  "abi": [
    {
      "inputs": [],
      "stateMutability": "nonpayable",
      "type": "constructor"
    },
    {
      "inputs": [
        {
          "internalType": "address",
          "name": "owner",
          "type": "address"
        }
      ],
      "name": "OwnableInvalidOwner",
      "type": "error"
    },
    {
      "inputs": [
        {
          "internalType": "address",
          "name": "account",
          "type": "address"
        }
      ],
      "name": "OwnableUnauthorizedAccount",
      "type": "error"
    },
    {
      "anonymous": false,
      "inputs": [
        {
          "indexed": true,
          "internalType": "address",
          "name": "previousOwner",
          "type": "address"
        },
        {
          "indexed": true,
          "internalType": "address",
          "name": "newOwner",
          "type": "address"
        }
      ],
      "name": "OwnershipTransferred",
      "type": "event"
    },
    {
      "inputs": [],
      "name": "AdlinkTokenAddr",
      "outputs": [
        {
          "internalType": "address",
          "name": "",
          "type": "address"
        }
      ],
      "stateMutability": "view",
      "type": "function"
    },
    {
      "inputs": [
        {
          "internalType": "address",
          "name": "newAdlinkTokenAddr",
          "type": "address"
        }
      ],
      "name": "changeAdlinkToken",
      "outputs": [],
      "stateMutability": "nonpayable",
      "type": "function"
    },
    {
      "inputs": [
        {
          "internalType": "address",
          "name": "newRelayer",
          "type": "address"
        }
      ],
      "name": "changeRelayer",
      "outputs": [],
      "stateMutability": "nonpayable",
      "type": "function"
    },
    {
      "inputs": [],
      "name": "owner",
      "outputs": [
        {
          "internalType": "address",
          "name": "",
          "type": "address"
        }
      ],
      "stateMutability": "view",
      "type": "function"
    },
    {
      "inputs": [
        {
          "internalType": "uint256",
          "name": "chainId",
          "type": "uint256"
        },
        {
          "internalType": "address",
          "name": "target",
          "type": "address"
        },
        {
          "internalType": "address",
          "name": "receiver",
          "type": "address"
        },
        {
          "internalType": "uint256",
          "name": "tokenAmount",
          "type": "uint256"
        }
      ],
      "name": "relayTokens",
      "outputs": [],
      "stateMutability": "nonpayable",
      "type": "function"
    },
    {
      "inputs": [],
      "name": "relayer",
      "outputs": [
        {
          "internalType": "address",
          "name": "",
          "type": "address"
        }
      ],
      "stateMutability": "view",
      "type": "function"
    },
    {
      "inputs": [],
      "name": "renounceOwnership",
      "outputs": [],
      "stateMutability": "nonpayable",
      "type": "function"
    },
    {
      "inputs": [
        {
          "internalType": "address",
          "name": "newOwner",
          "type": "address"
        }
      ],
      "name": "transferOwnership",
      "outputs": [],
      "stateMutability": "nonpayable",
      "type": "function"
    }
  ],
  "bytecode": "0x608060405234801561001057600080fd5b50338061003757604051631e4fbdf760e01b81526000600482015260240160405180910390fd5b61004081610046565b50610096565b600080546001600160a01b038381166001600160a01b0319831681178455604051919092169283917f8be0079c531659141344cd1fd0a4f28419497f9722a3daafe3b4186f6b6457e09190a35050565b610666806100a56000396000f3fe608060405234801561001057600080fd5b50600436106100885760003560e01c80638406c0791161005b5780638406c079146100d05780638da5cb5b146100ff578063cd53d1bd14610110578063f2fde38b1461012357600080fd5b806348d238291461008d57806364afcfb9146100a2578063650f8f47146100b5578063715018a6146100c8575b600080fd5b6100a061009b366004610540565b610136565b005b6100a06100b0366004610540565b6101bf565b6100a06100c3366004610562565b6101e9565b6100a0610455565b6001546100e3906001600160a01b031681565b6040516001600160a01b03909116815260200160405180910390f35b6000546001600160a01b03166100e3565b6002546100e3906001600160a01b031681565b6100a0610131366004610540565b610469565b61013e6104a7565b6000816001600160a01b03163b1161019d5760405162461bcd60e51b815260206004820152601760248201527f72656c61796572206d757374206120636f6e747261637400000000000000000060448201526064015b60405180910390fd5b600180546001600160a01b0319166001600160a01b0392909216919091179055565b6101c76104a7565b600280546001600160a01b0319166001600160a01b0392909216919091179055565b60008054604080513360248201526001600160a01b0392831660448201819052606480830187905283518084039091018152608490920183526020820180516001600160e01b03166323b872dd60e01b1790526002549251909491939192909116906102569084906105ca565b6000604051808303816000865af19150503d8060008114610293576040519150601f19603f3d011682016040523d82523d6000602084013e610298565b606091505b50909150506001811515146102e05760405162461bcd60e51b815260206004820152600e60248201526d19195c1bdcda5d0819985a5b195960921b6044820152606401610194565b604080516001600160a01b038716602480830191909152604480830188905283518084039091018152606490920183526020820180516001600160e01b031663a9059cbb60e01b179052915190917fcdde04aeaa767f6ab0b2484cd7d296883dadadc3e2b2d4ec68bbfbcb2d9b464f916000918391610365918c9187918f91016105e6565b60408051601f198184030181529181526020820180516001600160e01b03166001600160e01b03199094169390931790925260015491519092506000916001600160a01b0316906103b79084906105ca565b6000604051808303816000865af19150503d80600081146103f4576040519150601f19603f3d011682016040523d82523d6000602084013e6103f9565b606091505b50909150506001811515146104485760405162461bcd60e51b81526020600482015260156024820152741c995b185e595c8818d85b1b19590819985a5b1959605a1b6044820152606401610194565b5050505050505050505050565b61045d6104a7565b61046760006104d4565b565b6104716104a7565b6001600160a01b03811661049b57604051631e4fbdf760e01b815260006004820152602401610194565b6104a4816104d4565b50565b6000546001600160a01b031633146104675760405163118cdaa760e01b8152336004820152602401610194565b600080546001600160a01b038381166001600160a01b0319831681178455604051919092169283917f8be0079c531659141344cd1fd0a4f28419497f9722a3daafe3b4186f6b6457e09190a35050565b80356001600160a01b038116811461053b57600080fd5b919050565b60006020828403121561055257600080fd5b61055b82610524565b9392505050565b6000806000806080858703121561057857600080fd5b8435935061058860208601610524565b925061059660408601610524565b9396929550929360600135925050565b60005b838110156105c15781810151838201526020016105a9565b50506000910152565b600082516105dc8184602087016105a6565b9190910192915050565b60018060a01b038416815260606020820152600083518060608401526106138160808501602088016105a6565b604083019390935250601f91909101601f1916016080019291505056fea26469706673582212202f44db63e52a81acdecb31e7dc8db891eab204dcf4a59bde2e500f86407a799264736f6c63430008140033",
  "linkReferences": {},
  "deployedLinkReferences": {}
}