{
  "_format": "hh-sol-artifact-1",
  "contractName": "Relayer",
  "sourceName": "contracts/Relayer.sol",
  "abi": [
    {
      "inputs": [],
      "stateMutability": "nonpayable",
      "type": "constructor"
    },
    {
      "inputs": [
        {
          "internalType": "address",
          "name": "owner",
          "type": "address"
        }
      ],
      "name": "OwnableInvalidOwner",
      "type": "error"
    },
    {
      "inputs": [
        {
          "internalType": "address",
          "name": "account",
          "type": "address"
        }
      ],
      "name": "OwnableUnauthorizedAccount",
      "type": "error"
    },
    {
      "anonymous": false,
      "inputs": [
        {
          "indexed": true,
          "internalType": "address",
          "name": "adapter",
          "type": "address"
        },
        {
          "indexed": true,
          "internalType": "enum Relayer.AdapterStatus",
          "name": "status",
          "type": "uint8"
        }
      ],
      "name": "EAdapterStatusChanged",
      "type": "event"
    },
    {
      "anonymous": false,
      "inputs": [
        {
          "indexed": true,
          "internalType": "address",
          "name": "requester",
          "type": "address"
        },
        {
          "indexed": true,
          "internalType": "address",
          "name": "adapter",
          "type": "address"
        }
      ],
      "name": "ENewAdapterReq",
      "type": "event"
    },
    {
      "anonymous": false,
      "inputs": [
        {
          "indexed": true,
          "internalType": "uint256",
          "name": "chainId",
          "type": "uint256"
        },
        {
          "indexed": true,
          "internalType": "address",
          "name": "target",
          "type": "address"
        },
        {
          "indexed": false,
          "internalType": "bytes",
          "name": "data",
          "type": "bytes"
        }
      ],
      "name": "ERelay",
      "type": "event"
    },
    {
      "anonymous": false,
      "inputs": [
        {
          "indexed": true,
          "internalType": "address",
          "name": "adapter",
          "type": "address"
        },
        {
          "indexed": true,
          "internalType": "address",
          "name": "staker",
          "type": "address"
        },
        {
          "indexed": true,
          "internalType": "uint256",
          "name": "stakeAmount",
          "type": "uint256"
        }
      ],
      "name": "EStakeAmount",
      "type": "event"
    },
    {
      "anonymous": false,
      "inputs": [
        {
          "indexed": true,
          "internalType": "address",
          "name": "adapter",
          "type": "address"
        },
        {
          "indexed": true,
          "internalType": "address",
          "name": "staker",
          "type": "address"
        },
        {
          "indexed": true,
          "internalType": "uint256",
          "name": "stakeAmount",
          "type": "uint256"
        }
      ],
      "name": "EUnstakeAmount",
      "type": "event"
    },
    {
      "anonymous": false,
      "inputs": [
        {
          "indexed": true,
          "internalType": "address",
          "name": "previousOwner",
          "type": "address"
        },
        {
          "indexed": true,
          "internalType": "address",
          "name": "newOwner",
          "type": "address"
        }
      ],
      "name": "OwnershipTransferred",
      "type": "event"
    },
    {
      "stateMutability": "nonpayable",
      "type": "fallback"
    },
    {
      "inputs": [
        {
          "internalType": "uint256",
          "name": "",
          "type": "uint256"
        }
      ],
      "name": "adapterAddresses",
      "outputs": [
        {
          "internalType": "address",
          "name": "",
          "type": "address"
        }
      ],
      "stateMutability": "view",
      "type": "function"
    },
    {
      "inputs": [
        {
          "internalType": "address",
          "name": "",
          "type": "address"
        }
      ],
      "name": "adapterList",
      "outputs": [
        {
          "internalType": "enum Relayer.AdapterStatus",
          "name": "status",
          "type": "uint8"
        },
        {
          "internalType": "address",
          "name": "requester",
          "type": "address"
        },
        {
          "internalType": "uint256",
          "name": "stakeAmount",
          "type": "uint256"
        },
        {
          "internalType": "bool",
          "name": "hasStaked",
          "type": "bool"
        }
      ],
      "stateMutability": "view",
      "type": "function"
    },
    {
      "inputs": [
        {
          "internalType": "address",
          "name": "adapterAddress",
          "type": "address"
        }
      ],
      "name": "applyForVerification",
      "outputs": [],
      "stateMutability": "nonpayable",
      "type": "function"
    },
    {
      "inputs": [],
      "name": "owner",
      "outputs": [
        {
          "internalType": "address",
          "name": "",
          "type": "address"
        }
      ],
      "stateMutability": "view",
      "type": "function"
    },
    {
      "inputs": [
        {
          "internalType": "address",
          "name": "target",
          "type": "address"
        },
        {
          "internalType": "bytes",
          "name": "data",
          "type": "bytes"
        },
        {
          "internalType": "uint256",
          "name": "chainId",
          "type": "uint256"
        }
      ],
      "name": "relayData",
      "outputs": [],
      "stateMutability": "nonpayable",
      "type": "function"
    },
    {
      "inputs": [],
      "name": "renounceOwnership",
      "outputs": [],
      "stateMutability": "nonpayable",
      "type": "function"
    },
    {
      "inputs": [
        {
          "internalType": "address",
          "name": "adapter",
          "type": "address"
        }
      ],
      "name": "stakePosition",
      "outputs": [],
      "stateMutability": "payable",
      "type": "function"
    },
    {
      "inputs": [
        {
          "internalType": "address",
          "name": "newOwner",
          "type": "address"
        }
      ],
      "name": "transferOwnership",
      "outputs": [],
      "stateMutability": "nonpayable",
      "type": "function"
    },
    {
      "inputs": [
        {
          "internalType": "address",
          "name": "adapter",
          "type": "address"
        }
      ],
      "name": "unstakePosition",
      "outputs": [],
      "stateMutability": "nonpayable",
      "type": "function"
    },
    {
      "inputs": [
        {
          "internalType": "enum Relayer.AdapterStatus",
          "name": "status",
          "type": "uint8"
        },
        {
          "internalType": "uint256",
          "name": "stakeAmount",
          "type": "uint256"
        },
        {
          "internalType": "address",
          "name": "adapter",
          "type": "address"
        }
      ],
      "name": "updateAdapterRequest",
      "outputs": [],
      "stateMutability": "nonpayable",
      "type": "function"
    },
    {
      "stateMutability": "payable",
      "type": "receive"
    }
  ],
  "bytecode": "0x608060405234801561001057600080fd5b50338061003757604051631e4fbdf760e01b81526000600482015260240160405180910390fd5b61004081610046565b50610096565b600080546001600160a01b038381166001600160a01b0319831681178455604051919092169283917f8be0079c531659141344cd1fd0a4f28419497f9722a3daafe3b4186f6b6457e09190a35050565b610f43806100a56000396000f3fe6080604052600436106100955760003560e01c8063ba0ca0a811610059578063ba0ca0a81461019c578063cdde04ae146101bc578063dcfc070b146101dc578063e4010503146101fc578063f2fde38b1461020f5761009c565b8063715018a6146100aa5780637c917038146100bf5780638bf33828146100fc5780638da5cb5b1461015e5780639d88b9221461017c5761009c565b3661009c57005b3480156100a857600080fd5b005b3480156100b657600080fd5b506100a861022f565b3480156100cb57600080fd5b506100df6100da366004610c54565b610243565b6040516001600160a01b0390911681526020015b60405180910390f35b34801561010857600080fd5b5061014e610117366004610c89565b600260208190526000918252604090912080546001820154919092015460ff8084169361010090046001600160a01b031692911684565b6040516100f39493929190610cc1565b34801561016a57600080fd5b506000546001600160a01b03166100df565b34801561018857600080fd5b506100a8610197366004610c89565b61026d565b3480156101a857600080fd5b506100a86101b7366004610d0a565b610585565b3480156101c857600080fd5b506100a86101d7366004610d62565b6106ab565b3480156101e857600080fd5b506100a86101f7366004610c89565b610841565b6100a861020a366004610c89565b610a3c565b34801561021b57600080fd5b506100a861022a366004610c89565b610b99565b610237610bd7565b6102416000610c04565b565b6001818154811061025357600080fd5b6000918252602090912001546001600160a01b0316905081565b806001600160a01b03811661029d5760405162461bcd60e51b815260040161029490610e2d565b60405180910390fd5b803b806102bc5760405162461bcd60e51b815260040161029490610e5a565b600180548082019091557fb10e2d527612073b26eecdfd717e6a320cf44b4afac2b0732d9fcbe2b7fa0cf60180546001600160a01b0319166001600160a01b0385169081179091556000908152600260208190526040808320815160808101909252805491929091839160ff9091169081111561033b5761033b610cab565b600281111561034c5761034c610cab565b815281546001600160a01b0361010090910481166020808401919091526001840154604084015260029093015460ff1615156060909201919091529082015191925016156104a0576000815160028111156103a9576103a9610cab565b036103f65760405162461bcd60e51b815260206004820152601a60248201527f61646170746572207374617475732069732061636365707465640000000000006044820152606401610294565b60028151600281111561040b5761040b610cab565b036104585760405162461bcd60e51b815260206004820152601a60248201527f61646170746572207374617475732069732072656a65637465640000000000006044820152606401610294565b60405162461bcd60e51b815260206004820152601960248201527f61646170746572207374617475732069732070656e64696e67000000000000006044820152606401610294565b604080516080810182526001808252336020808401919091526000838501819052606084018190526001600160a01b03891681526002918290529390932082518154939491939092849260ff1990921691849081111561050257610502610cab565b021790555060208201518154610100600160a81b0319166101006001600160a01b039283160217825560408084015160018401556060909301516002909201805460ff19169215159290921790915590519085169033907f729c619cfc13a72a0e56faa4f2cf4c105e413c5bb5b4077a67c11cadc812930a90600090a350505050565b61058d610bd7565b806001600160a01b0381166105b45760405162461bcd60e51b815260040161029490610e2d565b803b806105d35760405162461bcd60e51b815260040161029490610e5a565b6001600160a01b038084166000908152600260205260409020548491610100909104166106125760405162461bcd60e51b815260040161029490610e88565b6001600160a01b0384166000908152600260208190526040909120805490918891839160ff1990911690600190849081111561065057610650610cab565b02179055506001810186905586600281111561066e5761066e610cab565b6040516001600160a01b038716907f635963a00e9f66de75345c465b289436c5362458b4be8852bf54f20d37147e5f90600090a350505050505050565b3360008181526002602052604090205461010090046001600160a01b03166106e55760405162461bcd60e51b815260040161029490610e88565b33806107035760405162461bcd60e51b815260040161029490610e2d565b803b806107225760405162461bcd60e51b815260040161029490610e5a565b336000908152600260208190526040808320815160808101909252805491929091839160ff9091169081111561075a5761075a610cab565b600281111561076b5761076b610cab565b8152815461010090046001600160a01b031660208201526001820154604082015260029091015460ff16151560609091015290506000815160028111156107b4576107b4610cab565b146107f65760405162461bcd60e51b81526020600482015260126024820152713ab730b1b1b2b83a32b21030b230b83a32b960711b6044820152606401610294565b866001600160a01b0316857fd1a8efa95fdc1974338732d713f3c6702de86954a86be5ca9e059b1cd98e499e886040516108309190610ebf565b60405180910390a350505050505050565b6001600160a01b038082166000908152600260205260409020548291610100909104166108805760405162461bcd60e51b815260040161029490610e88565b6001600160a01b0382166000908152600260208190526040808320815160808101909252805491929091839160ff909116908111156108c1576108c1610cab565b60028111156108d2576108d2610cab565b8152815461010090046001600160a01b03166020820152600180830154604083015260029092015460ff161515606091820152820151919250901515146109505760405162461bcd60e51b8152602060048201526012602482015271756e7374616b6520696e656c696769626c6560701b6044820152606401610294565b60008151600281111561096557610965610cab565b036109a75760405162461bcd60e51b8152602060048201526012602482015271756e7374616b6520696e656c696769626c6560701b6044820152606401610294565b80602001516001600160a01b0316336001600160a01b0316146109fd5760405162461bcd60e51b815260206004820152600e60248201526d24b73b30b634b21031b0b63632b960911b6044820152606401610294565b6000606082018190526040808301519051339282156108fc02929190818181858888f19350505050158015610a36573d6000803e3d6000fd5b50505050565b6001600160a01b03808216600090815260026020526040902054829161010090910416610a7b5760405162461bcd60e51b815260040161029490610e88565b6001600160a01b038216600090815260026020526040812090815460ff166002811115610aaa57610aaa610cab565b14610aee5760405162461bcd60e51b81526020600482015260146024820152731059185c1d195c881b9bdd081858d8d95c1d195960621b6044820152606401610294565b80600101543414610b385760405162461bcd60e51b8152602060048201526014602482015273125b9d985b1a59081cdd185ad948185b5bdd5b9d60621b6044820152606401610294565b805461010090046001600160a01b03163314610b875760405162461bcd60e51b815260206004820152600e60248201526d24b73b30b634b21031b0b63632b960911b6044820152606401610294565b600201805460ff191660011790555050565b610ba1610bd7565b6001600160a01b038116610bcb57604051631e4fbdf760e01b815260006004820152602401610294565b610bd481610c04565b50565b6000546001600160a01b031633146102415760405163118cdaa760e01b8152336004820152602401610294565b600080546001600160a01b038381166001600160a01b0319831681178455604051919092169283917f8be0079c531659141344cd1fd0a4f28419497f9722a3daafe3b4186f6b6457e09190a35050565b600060208284031215610c6657600080fd5b5035919050565b80356001600160a01b0381168114610c8457600080fd5b919050565b600060208284031215610c9b57600080fd5b610ca482610c6d565b9392505050565b634e487b7160e01b600052602160045260246000fd5b6080810160038610610ce357634e487b7160e01b600052602160045260246000fd5b9481526001600160a01b039390931660208401526040830191909152151560609091015290565b600080600060608486031215610d1f57600080fd5b833560038110610d2e57600080fd5b925060208401359150610d4360408501610c6d565b90509250925092565b634e487b7160e01b600052604160045260246000fd5b600080600060608486031215610d7757600080fd5b610d8084610c6d565b9250602084013567ffffffffffffffff80821115610d9d57600080fd5b818601915086601f830112610db157600080fd5b813581811115610dc357610dc3610d4c565b604051601f8201601f19908116603f01168101908382118183101715610deb57610deb610d4c565b81604052828152896020848701011115610e0457600080fd5b826020860160208301376000602084830101528096505050505050604084013590509250925092565b6020808252601390820152724e6f7420612076616c6964206164647265737360681b604082015260600190565b602080825260149082015273139bdd0818481d985b1a590818dbdb9d1c9858dd60621b604082015260600190565b60208082526017908201527f496e76616c696420616461707465722072657175657374000000000000000000604082015260600190565b600060208083528351808285015260005b81811015610eec57858101830151858201604001528201610ed0565b506000604082860101526040601f19601f830116850101925050509291505056fea264697066735822122091247f32a900d0a27605d6015f32c7b77e434d453ff098c9104c812aed25eb7964736f6c63430008140033",
  "linkReferences": {},
  "deployedLinkReferences": {}
}